:03000000020200F9
:100200001202C27860C211C210C20FC20E120424C0
:10021000D2901203A9C2B0120424E580F52AD2B00C
:10022000C210C20FC20ED21130932012042D12043C
:100230002DC295C296C29712042D12042DD295D2CA
:1002400096D29712042D12042D80DD2093D220B176
:100250001AD21120B20920B30C1203CE02027C1272
:1002600003A902027C1203F702027C301105C211BD
:100270001203A930B106C20FC20EC21020A4CCC214
:10028000A320A6051202A980C212028E80BD30B141
:1002900014300811E580F4F608B421091202E6785A
:1002A000601202DC221202DC22E580F4B52A06D2BA
:1002B000081202DC22B43F06C2081202DC2212023B
:1002C000DC22C2B5C2B4C2B7D2B6120424C2A2D2D2
:1002D000A3D2A7D2A5D2A6D2A4C20822D2A230A469
:1002E000FBC2A2D2A3227860E6B4542208E6B44F3F
:1002F0003908E6B446030203A4B44105D209020357
:1003000006B44426C20908E6B4431F0203CBB44432
:100310001A08E6B4411408E6B4540F08E6B4410ADA
:1003200008E6F590C295D296C29722B452FC08E630
:10033000B44BF708E6B44EF208E6B454EDC295C2E9
:1003400096C297C29012042D12042DD290C291121F
:10035000042D12042DD291C290C29112042D1204C8
:100360002DD290D291C29212042D12042DD292C29B
:1003700090C29212042D12042DD290D292C291C238
:100380009212042D12042DD292D291C290C291C227
:100390009212042D12042DD292D291D290C210C288
:1003A0000FC20E2208E6B4467A201077D295D29674
:1003B000C297C290C29112042DD290D291C29012D3
:1003C000042DD290C20ED210C20F22200929200F74
:1003D00052D295C296D297C29212042DD292C29155
:1003E000C29212042DD291D292C29012042DD290B8
:1003F000C20EC210D20F22200E29C295D296D297D9
:10040000C29112042DD291C290C29212042DD290A8
:10041000D292C290C29112042DD290D291D20EC229
:1004200010C20F228FF07FFFDFFEAFF0227EFF7D34
:06043000FFDDFEDEFC22F0
:00000001FF
